:060000000A128A11122809
:10000800FE00030EF3000408F4000A08F50083124A
:1000180003137F08F6000A128A11B42F0A128A11F4
:100028001528F701F801F901FA01FB01FC01831316
:100038003C3084004C300A128A1595270A128A111E
:100048005430FD000F30FE009D30FF004C3084001E
:100058000A128A15C72783010A128A116228831295
:100068000313850186018601890183160313051090
:1000780085100511851105128512061086100611C6
:1000880006128612880109120910891087140715AB
:10009800831203131016901690111014FB308F0062
:1000A8001D308E00831603130C140B178B170A12BE
:1000B8008A15692783120313861608000A128A1103
:1000C80033200A128A1183120313BA01BB01753057
:1000D8003B02303003193A0203188228000001302D
:1000E80083120313BA070318BB0A0030BB07753025
:1000F8003B02303003193A02031C72280730B9005A
:100108003908C90064008312031349080A128A11C6
:1001180000210A128A118628831203134A03031D39
:100128009B28CA01C7010130AC002C08C900480847
:1001380003190800C8010A128A1123260A128A1113
:100148000A128A1111230A128A110A128A158D2796
:100158000A128A11003A031D080010308312031393
:10016800860608005A30831203134C02031CBE286B
:10017800013008005A304D02031CC4280130080021
:1001880008304F02031CCA28013008004F08031D1D
:10019800CF280130080032305002031CD528013026
:1001A800080000300800831603139115141CDA2880
:1001B800831203131308A2002208A3000A128A114B
:1001C800F4200A128A110A3083120313A0000030A7
:1001D800A1000A128A15D4278312031323080800E2
:1001E8008316031311081F39031DF428141D080072
:0201F800F428E9
:10020000FF0001308A007F08820705290A128A113F
:100210000F290A128A1190280A128A11252C83129A
:1002200003134A03031D4D29CA01CB010130AF005E
:100230002F08C7070A128A1111230A128A110630E1
:10024000831203134702031CE02AA90100300A129B
:100250008A117C250A128A110A128A113F270A1272
:100260008A1183120313C801480803193429C801ED
:100270004808031938290B30A3008030A400A501D9
:10028000A50A00300A128A11BE2683120313C70181
:100290000730AF002F08C900080002304A06031DCE
:1002A000E02ACA01BE2A04300A128A117A270A12E9
:1002B0008A1183120313AF002F08B3000F303305E8
:1002C000AF000A30B0003008A0003308B10004309D
:1002D0000310B10CFF3E031D682931080F390A12C3
:1002E0008A11ED270A128A11831203132F07B20015
:1002F0003208B3001F303302031883290130AF00E6
:100300002F08B3078529B301B30A3308AF002F08BC
:10031000A90004300A128A117C250A128A11D42AF3
:1003200005300A128A117A270A128A1183120313DE
:10033000AF002F08B4000F303405AF000A30B00012
:100340003008A0003408B10004300310B10CFF3EA7
:10035000031DA52931080F390A128A11ED270A1247
:100360008A11831203132F07B2003208B4000C3035
:1003700034020318C0290130AF002F08B407C22986
:10038000B401B40A3408AF002F08A90005300A12DE
:100390008A117C250A128A11D42A06300A128A117F
:1003A0007A270A128A1183120313AF002F08B500AF
:1003B0000F303505AF000A30B0003008A000350816
:1003C000B10004300310B10CFF3E031DE2293108D7
:1003D0000F390A128A11ED270A128A1183120313A8
:1003E0002F07B2003208B500633035020318FD292B
:1003F0000130AF002F08B507FE29B5013508AF0061
:100400002F08A90006300A128A117C250A128A11C7
:10041000D42A02300A128A117A270A128A11831208
:100420000313AF002F08B6000F303605AF000A30B7
:10043000B0003008A0003608B10004300310B10C41
:10044000FF3E031D1E2A31080F390A128A11ED27BB
:100450000A128A11831203132F07B2003208B60062
:10046000173036020318392A0130AF002F08B607BB
:100470003A2AB6013608AF002F08A90002300A1246
:100480008A117C250A128A11D42A01300A128A1193
:100490007A270A128A1183120313AF002F08B700BC
:1004A0000F303705AF000A30B0003008A000370821
:1004B000B10004300310B10CFF3E031D5A2A31086D
:1004C0000F390A128A11ED270A128A1183120313B7
:1004D0002F07B2003208B7003B3037020318752AE5
:1004E0000130AF002F08B707762AB7013708AF00F1
:1004F0002F08A90001300A128A117C250A128A11DC
:10050000D42A03300A128A117A270A128A11831216
:100510000313AF002F08B8000F303805AF000A30C2
:10052000B0003008A0003808B10004300310B10C4E
:10053000FF3E031D962A31080F390A128A11ED2752
:100540000A128A11831203132F07B2003208B8006F
:10055000073038020318B12A0130AF002F08B8075E
:10056000B32AB801B80A3808AF002F08A900033031
:100570000A128A117C250A128A11D42A83120313C3
:100580004708003A03195329013A03199029033AFD
:100590000319CD29013A0319092A073A0319452AF3
:1005A000013A0319812AD42A0A128A1111230A1244
:1005B0008A1183120313C8010230AF002F08CB0049
:1005C000480803190800C8014708AF002F073C3E40
:1005D000840083130008031DF32A0A128A111123D1
:1005E0000A128A11082B831203134B08031D082BD0
:1005F0004708AF002F073C3E84008313800105307D
:1006000047020318082B0314470D3C3E8400800169
:10061000831203134B0803190F2B0130CB02061270
:10062000080004300A128A117A270A128A118312EA
:100630000313A7002708AB000A30A0000030A10078
:100640002B08A70004300310A70CFF3E031D232B2B
:100650002708A800A9012808A2002908A3000A1257
:100660008A1171260A128A118312031320080A12B2
:100670008A15B3270A128A1183120313AA002A08C3
:10068000BC000A30A0000030A1002B080F39A700E1
:10069000A8012708A2002808A3000A128A117126BF
:1006A0000A128A118312031320080A128A15B3272B
:1006B0000A128A1183120313A9002908BD0005300C
:1006C0000A128A117A270A128A1183120313A700C9
:1006D0002708AB002B08A70004300310A70CFF3E2F
:1006E000031D6D2B27080A128A15B3270A128A11D7
:1006F00083120313A8002808BE002B080F390A1222
:100700008A15B3270A128A1183120313A700270838
:10071000BF0006300A128A117A270A128A11831240
:100720000313A7002708AB002B08A7000430031011
:10073000A70CFF3E031D972B27080A128A15B32723
:100740000A128A1183120313A8002808C0002B087C
:100750000F390A128A15B3270A128A11831203135A
:10076000A7002708C10002300A128A117A270A124C
:100770008A1183120313A7002708AB002B08A700D8
:1007800004300310A70CFF3E031DC12B27080A12DB
:100790008A15B3270A128A1183120313A8002808A6
:1007A000C2002B080F390A128A15B3270A128A11C0
:1007B00083120313A7002708C30001300A128A110D
:1007C0007A270A128A1183120313A7002708AB00A5
:1007D0002B08A70004300310A70CFF3E031DEB2BD2
:1007E00027080A128A15B3270A128A1183120313E3
:1007F000A8002808C4002B080F390A128A15B3274D
:100800000A128A1183120313A7002708C5000330B8
:100810000A128A117A270A128A1183120313A70077
:100820002708AB002B0AA7008030A8000030A900E1
:100830001C2C290DA90CA80CA70B192C831203132F
:100840002808AA002A08C6000800831603130C1003
:1008500083120313B1010B30310203183C2C310811
:100860003C3E8400831380010130AF002F08B107A4
:100870000B303102031C2F2C831603130C1483122C
:10088000031306120A128A1123260A128A11003053
:100890000A128A1100270A128A1183120313AF0069
:1008A0002F08B0000A128A11B6200A128A11003AE3
:1008B000031D602C5A308312031330060319BA2C1F
:1008C000093083120313AF002F08A90004300A1265
:1008D0008A117C250A128A11063083120313AF0095
:1008E0002F08A90005300A128A117C250A128A11E4
:1008F000103083120313AF002F08A90006300A122C
:100900008A117C250A128A11173083120313AF0053
:100910002F08A90002300A128A117C250A128A11B6
:100920003B3083120313AF002F08A90001300A12D5
:100930008A117C250A128A1183120313A90100303F
:100940000A128A117C250A128A110A128A113F277B
:100950000A128A1183120313A901A90A03300A1289
:100960008A117C2583120313C7010130AF002F08C1
:10097000C90008000430AF002F08C9000800152D79
:10098000F901FA01831203138718CF2C0230F0000B
:100990007008CA000130F0007008FB070800071952
:1009A00008000130F0007008CA000130F000700843
:1009B000FB070800FB010800831203138718F42CBF
:1009C0000130F9070318FA0A0030FA0700307A02FA
:1009D000653003197902031C08000230F00070082A
:1009E000CA00F901FA010800FB0108008312031391
:1009F000871CFC2C0719102DFB01FB0A0130F9079D
:100A00000318FA0A0030FA0703307A02E9300319B2
:100A10007902031C08006E30F0007008FB0008002B
:100A20000130F0007008FB0708007B08003A03194A
:100A3000C02C643A0319DA2C0A3A0319DC2CF62C80
:100A4000080083120313A601A11F2D2DA009A109DF
:100A5000A00A0319A10AA601A60AA31F382DA209FC
:100A6000A309A20A0319A30A0130A4002408A606B8
:100A7000A701A8012008210403196F2DA501A50ACB
:100A8000A11B4E2D01300310A00DA10DFF3E031D33
:100A9000432D0130A4002408A507402D0130031088
:100AA000A70DA80DFF3E031D4F2D21082302031D96
:100AB0005B2D20082202031C642D2008A2022108BD
:100AC000031CA303A302271401300310A10CA00CE4
:100AD000FF3E031D652D0130A502031D4E2D260886
:100AE0000319772DA709A809A70A0319A80A280836
:100AF000A1002708A000080083120313AE000A30EB
:100B0000A0000030A1002908AA00AB012A08A20019
:100B10002B08A3000A128A1121250A128A118312B6
:100B200003132008AC002C08AD00AD0EF030AD056D
:100B30000A30A0000030A1002908AA00AB012A0851
:100B4000A2002B08A3000A128A1171260A128A1128
:100B5000831203132008AC002C08AD04B82D2D0817
:100B6000AA002E084C3E84002A0883138000080047
:100B70002E08003A0319AF2D013A0319AF2D033A9D
:100B80000319AF2D013A0319AF2D073A0319AF2D01
:100B9000013A0319AF2D033A0319AF2DCF2D0800E9
:100BA000C030F0007008831203138505F830F000A0
:100BB00070088605FC30F000700889057C083C3E12
:100BC000840083130008880009307C02031CF82D80
:100BD0000130F0007C08F73E013EF02D0310F00DCF
:100BE000FF3E031DEE2D7008F10071088904192ED7
:100BF00006307C02031C0C2E0130F0007C08FA3E0B
:100C0000013E042E0310F00DFF3E031D022E70085E
:100C1000F10071088604192E0130F0007C0A122EB2
:100C20000310F00DFF3E031D102E7008F100710837
:100C300085040130F0007008FC070B307C02031CB7
:100C40000800FC0108000A128A156D270A128A1191
:100C5000D0300A128A15E8270A128A1100300A12C7
:100C60008A15E8270A128A110A128A1579270A12A8
:100C70008A11D1300A128A15E8270A128A118312C2
:100C80000313A5010830250203186D2E0A128A11DC
:100C9000D7200A128A1183120313A40025084C3EA0
:100CA000840024088313800007302506031D5E2E70
:100CB0000A128A1586270A128A11632E0A128A15C9
:100CC0007F270A128A11013083120313A40024081B
:100CD000A50708302502031C462E0A128A15732721
:100CE000080083120313A601A31F7D2EA209A309E6
:100CF000A20A0319A30AA601A60AA11F842EA0090D
:100D0000A109A00A0319A10A200821040319B12E80
:100D1000A501A50AA11B982E01300310A00DA10D5D
:100D2000FF3E031D8D2E0130A4002408A5078A2E46
:100D300021082302031D9E2E20082202031CA62E3A
:100D40002008A2022108031CA303A3020130031000
:100D5000A10CA00CFF3E031DA72E0130A502031D10
:100D6000982E26080319B92EA209A309A20A03196D
:100D7000A30A2308A1002208A0000800831203137D
:100D8000A70038302702031808000830A6002608FC
:100D9000A7070A128A156D270A128A11D0300A1283
:100DA0008A15E8270A128A118312031327080A12E8
:100DB0008A15E8270A128A118312031325080319DA
:100DC000FC2E831203132408FF00230884000A1258
:100DD0008A1500200A128A110A128A15E8270A12B7
:100DE0008A11013083120313A3070318A40A0030E9
:100DF000A4070130A502DC2E0A128A157327080009
:100E000083120313A60038302602031808000830A6
:100E1000A4002408A6070A128A156D270A128A114F
:100E2000D0300A128A15E8270A128A118312031396
:100E300026080A128A15E8270A128A110A128A1548
:100E400079270A128A11D1300A128A15E8270A1264
:100E50008A110A128A11D7200A128A1183120313E7
:100E6000A4002408A5000A128A1586270A128A11EE
:100E70000A128A15732783120313250808007F308E
:100E800083120313A3002308CC054F08031D4A2F28
:100E9000CF01CF0A0A128A156D270A128A11D030A3
:100EA0000A128A15E8270A128A1100300A128A15D6
:100EB000E8270A128A1183120313A40108302402BE
:100EC0000318762F24084C3E8400831300080A126E
:100ED0008A15E8270A128A11013083120313A3002E
:100EE0002308A40708302402031C622F0A128A1563
:100EF0007327080083120313A0009B2F20084C3E89
:100F00008400831300083F39080020084C3E840009
:100F1000831300087F39080020084C3E84008313A7
:100F20000008080020084C3E8400831300080F3995
:100F30000800003008002008003A0319852F013A04
:100F400003198C2F033A03197E2F013A0319922FAC
:100F5000073A03198C2F013A03198C2F033A03190E
:100F60008C2F992F003008000C1CE12F83160313DF
:100F70000C1CE12F770878040319C52F0130F70204
:100F80000030031CF803F802CF2F0130F200720882
:100F900083120313C800F430F7000130F800FD306D
:100FA00083128F008E308E000A128A11D0250A1209
:100FB0008A110A128A11BF240A128A11831203139A
:100FC0000C1076088312FF0075088A0074088400EC
:100FD000730E8300FE0E7E0E090083120313A3001E
:100FE000A201231CF72F2008A1002108A20703104B
:100FF000A00D0310A30C2308031DF12F22080800E5
:10100000FF1B0A2883137F1883170008840A03191B
:10101000FF0A080008308A000408840A82070034A6
:101020003F3406345B344F3466346D347D340734DA
:081030007F346F345A340034A0
:101ED2000A128A15A5270800831603131114111C70
:101EE2000800702F831603131115111D0800762F99
:101EF200831603139114911C08007C2F831603137D
:101F020091121116111E0800832F831603139116C6
:101F12001116111E08008A2F83120313CC1F932F50
:101F2200013008000030080064008001840A0406C1
:101F3200031900340406962F0034003400340134AF
:101F4200013401340934003483160313871507164C
:101F5200941728308312031394003130831603132D
:101F62009300080083120313A0000A302002031812
:101F7200C12F2008013E84000A128A150A20080097
:101F8200793008007E088A007F088200C3270A127F
:101F92008A158000840A04087D0603190034FF0AAA
:101FA2000319FE0AC72F8312031320082104031901
:101FB200080000000000000000000000FF30831253
:101FC2000313A0070318A10AFF30A107D42F83121D
:101FD2000313A20022089300831603131418ED2F93
:101FE2000A128A11F4200A128A150A308312031384
:0E1FF200A0000030A1000A128A15D4270800B2
:02400E007A3FF7
:00000001FF
